:020000040800F2
:10000000000002207D020008C3020008C5020008AB
:10001000C7020008C9020008CB0200080000000067
:10002000000000000000000000000000CD020008F9
:10003000CF02000800000000152D0008AD2C0008BC
:10004000D7020008D9020008DB020008DD02000820
:10005000DF020008E1020008C9370008D9370008AC
:10006000E9370008F937000809380008ED020008F0
:10007000EF020008F1020008F3020008F502000890
:10008000F7020008F902000861310008FD020008CB
:10009000FF020008010300080303000819380008E4
:1000A00007030008B14800080B0300080D0300080F
:1000B000294900084149000859490008150300086A
:1000C00017030008190300081B0300081D0300089C
:1000D0001F030008294F0008414F0008594F00082E
:1000E00075380008290300082B0300082D030008B9
:1000F0002F03000831030008A14900083503000858
:100100003703000839030008714900083D0300085F
:10011000714F0008894F000843030008894900080F
:1001200047030008490300084B0300084D0300087B
:100130004F0300085103000853030008550300084B
:1001400057030008590300085B030008B168000862
:100150005F0300086103000863030008A14F000863
:1001600067030008690300086B0300086D030008BB
:100170006F0300087103000873030008750300088B
:10018000770300087903000810B5054C237833B9CC
:10019000044B13B10448AFF300800123237010BD5A
:1001A0002C09002000000000CC8F010808B5064B88
:1001B0001BB106480649AFF300800648036813B137
:1001C000054B03B1984708BD00000000CC8F010823
:1001D000300900202C09002000000000154B002BE6
:1001E00008BF134B9D46A3F5803A00218B460F466E
:1001F0001348144A121A13F04BF80F4B002B00D07F
:1002000098470E4B002B00D0984700200021040097
:100210000D000D48002802D00C4814F043FE12F0E7
:10022000A3FC2000290011F0ABFB12F08DFC00BFF5
:100230000000080000000220000000000000000094
:100240002C090020F82B0020A54E0108615E010852
:10025000EFF3088020E9F00F80F308882DED200AE5
:10026000EFF30880704780F30888BDEC200AEFF3B5
:100270000880B0E8F00F80F3088870470649074A05
:10028000074B9A42BEBF51F8040B42F8040BF8E743
:100290000448804704480047D88F01080000002028
:1002A0002C09002031280008DD0100083349344AB8
:1002B000002301E041F8043B9142FBD311F060FBC5
:1002C000FEE7FEE7FEE7FEE7FEE7FEE7FEE7FEE706
:1002D000FEE7FEE7FEE7FEE7FEE7FEE7FEE7FEE7F6
:1002E000FEE7FEE7FEE7FEE7FEE7FEE7FEE7FEE7E6
:1002F000FEE7FEE7FEE7FEE7FEE7FEE7FEE7FEE7D6
:10030000FEE7FEE7FEE7FEE7FEE7FEE7FEE7FEE7C5
:10031000FEE7FEE7FEE7FEE7FEE7FEE7FEE7FEE7B5
:10032000FEE7FEE7FEE7FEE7FEE7FEE7FEE7FEE7A5
:10033000FEE7FEE7FEE7FEE7FEE7FEE7FEE7FEE795
:10034000FEE7FEE7FEE7FEE7FEE7FEE7FEE7FEE785
:10035000FEE7FEE7FEE7FEE7FEE7FEE7FEE7FEE775
:10036000FEE7FEE7FEE7FEE7FEE7FEE7FEE7FEE765
:10037000FEE7FEE7FEE7FEE7FEE700002C090020AF
:10038000F82B002080B483B000AF786007F10C0731
:10039000BD4680BC704700BF80B483B000AF7860BA
:1003A0007B689B88184607F10C07BD4680BC7047E8
:1003B00080B483B000AF786007F10C07BD4680BC05
:1003C000704700BF80B483B000AF78607B68184688
:1003D00007F10C07BD4680BC704700BF80B483B0F6
:1003E00000AF786007F10C07BD4680BC704700BFC6
:1003F00080B483B000AF78607B68184607F10C07C3
:10040000BD4680BC704700BF80B483B000AF786049
:100410004FF00103184607F10C07BD4680BC70473A
:1004200080B483B000AF786007F10C07BD4680BC94
:10043000704700BF80B582B000AF786039607B68DC
:100440003A681A607B6803F10403184609F09EFCC1
:100450007B6803F108027B681B681046194600F0B0
:10046000B3FB7B6803F15C027B681B68104619468E
:1004700000F0FEFB7B6803F15C027B68DA647B685A
:100480007A681A657B68184607F10807BD4680BD83
:1004900080B582B000AF78607B680B4A1A607B68D9
:1004A00003F104031846FFF7A3FF7B684FF0000237
:1004B0001A637B684FF000025A637B68184607F1A5
:1004C0000807BD4680BD00BF1883010880B584B011
:1004D00000AF78607B685B6B002B0BD07B685B6B3D
:1004E00003F104027B689B881046194609F09EFCC4
:1004F000034601E04FF00003FB60FB68002B34D0A3
:100500007B681B6B002B30D07B68DB8803F0020319
:10051000002B15D0FB681B6803F11C031B687A686D
:1005200002F104017A68126B1269F8689847034671
:10053000002B1AD07B681B6B184600F0D7FB14E029
:10054000FB681B6803F118031B687A6802F1040159
:100550007A68126B1269F86898470346002B04D03A
:100560007B681B6B184600F0C1FB07F11007BD4606
:1005700080BD00BF80B584B000AFF860B9607A601C
:10058000FB6818464FF0000109F0D8FBFB680F4AE2
:100590001A60FB687A685A61BB6803F10402FB6861
:1005A0001046194609F002FCFB684FF000021A726F
:1005B000FB684FF000025A72FB684FF00002DA60ED
:1005C000FB68184607F11007BD4680BDF0820108A0
:1005D00080B483B000AF78607B685B7A002B06D074
:1005E0007B684FF000025A724FF0010301E04FF0B8
:1005F0000003184607F10C07BD4680BC704700BFDA
:1006000080B483B000AF78607B681B7A184607F12E
:100610000C07BD4680BC704780B483B000AF7860E3
:100620007B68DB68184607F10C07BD4680BC704745
:1006300090B58BB000AFF860B9607A60BB689B681A
:10064000002B56D1BB685B684FEA4314FB685B69BB
:100650001B6803F114031B68FA6852691046984737
:1006600003469C428CBF00230123DBB2002B37D012
:10067000FB681B6803F104031B68F868984703468E
:10068000002B23D0FB684FF00002DA60FB684FF0CC
:1006900001021A72FB684FF000025A727B684FF039
:1006A00000021A704FF000025A70BB685A68FB686B
:1006B0001A61FB685B691B6803F110031B68FA6829
:1006C000526910464FF00001984712E07B684FF0E6
:1006D000000242F002021A704FF000025A7008E065
:1006E0007B684FF0000242F001021A704FF00002E6
:1006F0005A70FB681B7A83F00103DBB2002B02D037
:100700004FF00103E8E0FB681B69002B48D0BB6891
:100710009A68FB681B699A4242D2FB685B691B6856
:100720001B68FA685269104698474FF0000387F833
:1007300027301AE0FB685B691B6803F108031B683C
:10074000FA685069BA6892684FEA421197F8272010
:10075000891897F82720BC68A218127B984797F849
:10076000273003F1010387F8273097F827301F2B34
:100770008CBF00230123DBB2002BDBD1FB685B695C
:100780001B6803F104031B68FA6852691046984716
:10079000BB689B6803F101034FEA4312FB68DA6010
:1007A000BB689A68FB681B6903F1FF339A4204D067
:1007B000FB681B69002B40F08D80BB685B889BB297
:1007C00003F00103002B39D0FB685B691B681B68D1
:1007D000FA68526910469847FB68DB683B6210E094
:1007E000FB685B691B6803F108031B68FA685269C0
:1007F0001046396A4FF0000298473B6A03F1010343
:100800003B62FB685B691B6803F114031B68FA68B1
:1008100052691046984702463B6A9A4294BF0023A9
:100820000123DBB2002BDBD1FB685B691B6803F1A2
:1008300004031B68FA6852691046984707F11003D1
:1008400018464FF000014FF6FF724AF2010309F01B
:1008500055F94FF00003FB6115E0FB685B691B680D
:1008600003F10C031B68FA6852691046F96998474E
:10087000034607F110021046194609F0EBF9FB692F
:1008800003F10103FB61FB68DA68FB699A4294BFDC
:1008900000230123DBB2002BDFD107F11003184640
:1008A000FFF77AFD03461A467B685A80FB684FF0D3
:1008B00001025A72FB684FF000021A72FB681B6853
:1008C00003F108031B68F868984707F110031846FE
:1008D00009F05EF94FF00103184607F12C07BD46F9
:1008E00090BD00BF90B58BB000AFF860B9607A6082
:1008F000FB685B691B6803F114031B68FA685269A3
:100900001046984702467B685A60BB689B68002B7C
:1009100057D1BB685B684FEA4314FB685B691B688F
:1009200003F114031B68FA6852691046984703469E
:100930009C428CBF00230123DBB2002B38D0FB6824
:100940001B6803F104031B68F86898470346002BF3
:1009500024D0FB684FF00002DA60FB684FF0010220
:100960001A72FB684FF000025A727B684FF0000267
:100970001A704FF000025A70FB685B691B6803F144
:1009800014031B68FA6852691046984703464FEAF9
:10099000531303F10102FB681A6112E07B684FF008
:1009A000000242F002021A704FF000025A7008E092
:1009B0007B684FF0000242F001021A704FF0000213
:1009C0005A70FB681B7A83F00103DBB2002B02D064
:1009D0004FF00103DDE0FB681B69002B3AD0BB68D8
:1009E0009A68FB681B699A4234D24FF0000387F87B
:1009F00027301EE097F82740FB685B691B6803F10E
:100A00000C031B68FA685169BA6892684FEA421091
:100A100097F82720821808461146984703461A4639
:100A20007B681B191A7297F8273003F1010387F8C6
:100A3000273097F827301F2B8CBF00230123DBB210
:100A4000002BD7D1BB689B6803F101034FEA431227
:100A5000FB68DA60BB689A68FB681B6903F1FF33C7
:100A60009A4204D0FB681B69002B40F09080BB6861
:100A70005B889BB203F00103002B33D0FB68DB687B
:100A80003B621CE0FB685B691B6803F10C031B689D
:100A9000FA685169BA6892684FEA42103A6A821855
:100AA00008461146984703461A4679683B6ACB18B0
:100AB00003F108031A703B6A03F101033B62FB6810
:100AC0005B691B6803F114031B68FA6852691046DE
:100AD000984702463B6A9A4294BF00230123DBB247
:100AE000002BCFD107F1100318464FF000014FF64D
:100AF000FF724AF2010309F001F84FF00003FB61B5
:100B000015E0FB685B691B6803F10C031B68FA685E
:100B100052691046F9699847034607F110021046DA
:100B2000194609F097F8FB6903F10103FB61FB68C3
:100B30005B691B6803F114031B68FA68526910466D
:100B400098470246FB699A4294BF00230123DBB217
:100B5000002BD6D107F110031846FFF71DFC034602
:100B60001A467B685A80FB684FF001025A72FB6894
:100B70004FF000021A72FB681B6803F108031B6840
:100B8000F868984707F11003184609F001F84FF08C
:100B90000103184607F12C07BD4690BD80B582B011
:100BA00000AF78607B6818464FF0000109F0C6F886
:100BB0007B68044A1A607B68184607F10807BD463F
:100BC00080BD00BF3883010880B582B000AF786077
:100BD00039607B681846FFF7E1FF7B68184A1A60A6
:100BE0007B6803F118027B681A617B6803F11403C8
:100BF0001846FFF74DFC7B683A68DA647B6803F1BE
:100C000018027B689A607B684FF02C029A817B689F
:100C10004FF0FE029A737B684FF0000283F8502079
:100C20007B68DB6C03F104027B681046194609F00F
:100C3000BDF87B68184607F10807BD4680BD00BFB8
:100C4000E082010880B582B000AF78607B68074A17
:100C50001A607B6803F104031846FFF7B3FB7B6857
:100C6000184607F10807BD4680BD00BF288301086C
:100C700080B582B000AF786039607B681846FFF7B6
:100C80008DFF7B68184A1A607B6803F118027B6845
:100C90001A617B6803F114031846FFF7D3FF7B68E2
:100CA0003A681A647B6803F118027B689A607B6873
:100CB0004FF028029A817B684FF0FF029A737B689D
:100CC0004FF0000283F844207B681B6C03F10402A0
:100CD0007B681046194609F069F87B68184607F1E9
:100CE0000807BD4680BD00BFD082010890B583B023
:100CF00000AF78607B681B6C1B6803F104031C6801
:100D00007B68186C7B68997B7B689A687B689B8999
:100D1000DBB2A04707F10C07BD4690BD80B582B09D
:100D200000AF78607B684FF0010283F844207B6855
:100D300003F114031846FFF751FB07F10807BD46FE
:100D400080BD00BF80B582B000AF78607B684FF097
:100D5000010283F850207B6803F114031846FFF763
:100D6000B5FB07F10807BD4680BD00BF80B582B066
:100D700000AF7860786811F01FFF0346184607F14E
:100D80000807BD4680BD00BF80B483B000AF786067
:100D90007B684FF000021A607B684FF000029A8077
:100DA0007B68184607F10C07BD4680BC704700BF42
:100DB00080B483B000AF786039603B681B68002B5B
:100DC0000CD03B689B88002B08D03B681A687B6876
:100DD0001A603B689A887B689A8007E07B684FF0CE
:100DE00000021A607B684FF000029A8007F10C073E
:100DF000BD4680BC704700BF80B584B000AFF860CE
:100E0000B9601346FB80F868FFF7BEFFF86807F18A
:100E10001007BD4680BD00BF80B483B000AF7860CE
:100E200007F10C07BD4680BC704700BF80B483B09B
:100E300000AF786007F10C07BD4680BC704700BF6B
:100E400080B483B000AF78607B68DA887B689A8072
:100E500007F10C07BD4680BC704700BF80B582B06B
:100E600000AF78600B46FB707B680D4A1A607B68A8
:100E700003F10403184608F089FF7B6803F10802B8
:100E8000FB78104619464FF6FF724AF2010308F04C
:100E900035FE7B68184607F10807BD4680BD00BFD8
:100EA000E083010890B589B002AFF8607A600A4625
:100EB000FA72BB72FB6803F108031846FFF7C0FF24
:100EC000FB6803F10802FB7A1046194608F0C2FEDF
:100ED000FB6803F1080318464FF0000108F0BAFE62
:100EE0004FF00003FB750EE0FB6803F10802FB7D89
:100EF0007968CB181B781046194608F0ABFEFB7DCD
:100F000003F10103FB75FA7DBB7A9A422CBF0023E3
:100F10000123DBB2002BE7D1FB681B6803F1080358
:100F20001C68FB6803F108031846FFF735FA03460F
:100F30001946FA7ABB7A0091F86811467A68A04798
:100F400007F11C07BD4690BD80B584B000AFF860C6
:100F5000B9601346FB71FA68FB7910461946FFF732
:100F60007DFFFB680F4A1A60FB68BA685A61FB682C
:100F70004FF0000283F86020FB684FF0900283F886
:100F80006320FB684FF0000283F85C20FB684FF0A1
:100F9000000283F86120FB68184607F11007BD4680
:100FA00080BD00BF4883010880B5A6B000AFF860DF
:100FB0007A600A46FA72BB7207F11003C7F89430E0
:100FC000BB7A012B40F20C81BB7A3C2B00F20881EA
:100FD000B7F8A0304FEA2313DBB203F00F03DBB204
:100FE00043F02003DBB2DAB2D7F894301A70D7F8A6
:100FF000943003F10103C7F89430B7F8A030DBB2A6
:1010000003F00F03DBB243F03003DBB2DAB2D7F800
:1010100094301A70D7F8943003F10103C7F8943074
:10102000B7F8A0304FEA13339BB2DBB243F0400372
:10103000DAB2D7F894301A70D7F8943003F101037C
:10104000C7F89430B7F8A0304FEA2323DBB203F09F
:101050000F03DBB243F05003DBB2DAB2D7F89430BF
:101060001A70D7F8943003F10103C7F89430FB7A73
:101070004FEA2313DBB243F04003DBB2DAB2D7F816
:1010800094301A70D7F8943003F10103C7F8943004
:10109000FB7A03F00F03DBB243F05003DBB2DAB2AA
:1010A000D7F894301A70D7F8943003F10103C7F8D9
:1010B0009430D7F894304FF040021A70D7F894303B
:1010C00003F10103C7F89430D7F894304FF0500281
:1010D0001A70D7F8943003F10103C7F894304FF039
:1010E000000387F8933030E097F893307A68D3188C
:1010F0001B784FEA2313DBB243F04003DBB2DAB2D2
:10110000D7F894301A70D7F8943003F10103C7F878
:10111000943097F893307A68D3181B78DBB203F0D9
:101120000F03DBB243F05003DBB2DAB2D7F89430EE
:101130001A70D7F8943003F10103C7F8943097F888
:10114000933003F1010387F8933097F89320BB7A2B
:1011500003F1FF339A42ACBF00230123DBB2002B23
:10116000C2D1BB7A03F1FF337A68D3181B784FEAF8
:101170002313DBB263F07F03DBB2DAB2D7F894302B
:101180001A70D7F8943003F10103C7F89430BB7A92
:1011900003F1FF337A68D3181B78DBB203F00F0337
:1011A000DBB263F06F03DBB2DAB2D7F894301A70B7
:1011B000D7F8943003F10103C7F89430FB685B69FA
:1011C0001B6803F104031B68FA685069BA7A02F1DC
:1011D0000402D2B24FEA4202D2B207F1100198479C
:1011E00007F19807BD4680BD90B585B000AF786027
:1011F0004FF00003BB724FF00003FB727B684FF0AF
:101200000002DA7774E1BB7A03F00F03FB72BB7A5A
:1012100023F00F03DBB2BB72BB7A402B4ED0402BC6
:1012200004DC202B0BD0302B25D0C0E0802B00F02D
:101230008480902B00F09880502B5BD0B7E07B68C7
:1012400093F86330902B04D07B684FF0010283F851
:101250005C207B684FF0000283F860207B6803F11C
:101260001C027B6893F86030D318FA7A4FEA0212B6
:10127000D2B21A70A1E07B6893F86330202B04D0BF
:101280007B684FF0010283F85C207B6803F11C004F
:101290007B6893F860301A4611464118786800F16F
:1012A0001C0082181078FA7A0243D2B20A7003F155
:1012B0000103DAB27B6883F860207EE07B6893F8F4
:1012C0006330302B09D07B6893F86330502B04D007
:1012D0007B684FF0010283F85C207B6803F11C02FD
:1012E0007B6893F86030D318FA7A4FEA0212D2B2D0
:1012F0001A7062E07B6893F86330402B04D07B68FF
:101300004FF0010283F85C207B6803F11C007B68CE
:1013100093F860301A4611464118786800F11C00B5
:1013200082181078FA7A0243D2B20A7003F10103EC
:10133000DAB27B6883F860203FE07B6893F8633023
:10134000502B04D07B684FF0010283F85C207B684F
:1013500003F11C027B6893F86030D318FA7A4FEAE5
:101360000212D2B21A7028E07B6893F86330802BA7
:1013700004D07B684FF0010283F85C207B6803F1A6
:101380001C027B6893F86030D3187A6802F11C0164
:101390007A6892F860208A181178FA7A0A43D2B2F1
:1013A0001A707B684FF0010283F8612005E07B68CA
:1013B0004FF0010283F85C2000BF7B6893F8603037
:1013C000402B04D97B684FF0010283F85C20BA7A85
:1013D0007B6883F863207B6893F85C30002B1CD01B
:1013E0007B684FF0000283F85C207B684FF00002BE
:1013F00083F861207B684FF0000283F860207B68EF
:101400004FF0900283F863207B68B3F85E3003F1FD
:1014100001039AB27B68A3F85E207B6893F8613081
:10142000002B65D07B684FF0000283F861207B6859
:1014300003F10403184608F0EDFCF86004E0FB68D3
:10144000184608F097FCF860FB68002B08D0FB6892
:101450009A7B7B689B7F9A4202D04FF0010301E0A8
:101460004FF00003002BEAD1FB68002B21D07B68F2
:1014700093F860301A46FB689B8903F103039A4294
:1014800017D17B689C8B7B6803F108017B6803F1B3
:101490001E027B6893F8603003F1FF330846114663
:1014A0001A4608F089FB03469C4202D14FF0010323
:1014B00001E04FF00003002B10D0FB6899687B68B7
:1014C00003F12002FB689B89084611461A4611F079
:1014D00045FEFB681B681B68F86898477B684FF0FF
:1014E000900283F863207B684FF0000283F860204D
:1014F0007B685B691B6803F110031B687A6851699C
:1015000007F10A020846114698470346002B05D00A
:10151000BB7A002B02D04FF0010301E04FF0000333
:10152000002B7FF470AE07F11407BD4690BD00BFDD
:1015300080B584B000AFF860B960FA71BB71FA6829
:10154000BB7910461946FFF789FCFB6803F11402CA
:10155000FB791046B9684FF0010200F0E7F8FB682C
:101560000B4A1A60FB680B4A5A61FB68BA68C3F8F9
:10157000A820FB6803F1AC0318464FF0050100F00A
:10158000EFF8FB68184607F11007BD4680BD00BFA5
:10159000608301087C83010880B483B000AF786069
:1015A00007F10C07BD4680BC704700BF80B594B002
:1015B00000AFF8607A600A46FA72BB72BB7A3C2BC5
:1015C0001AD8BB7A07F1100202F1040210467968BA
:1015D0001A4611F0C3FD4FF00003FB74FB7ABB7495
:1015E000B7F858303B82FB6803F1AC0207F11003F7
:1015F0001046194600F0DEF807F15007BD4680BDE1
:1016000080B582B000AF786039607B6803F1AC03CD
:101610001846396800F020F90346002B0CBF002360
:101620000123DBB2002B18D13B6803F104031846F9
:101630004FF000014FF03C0211F02AFE3B684FF0E2
:10164000FF029A703B684FF00002DA703B684FF07F
:1016500000021A704FF000025A704FF00103184652
:1016600007F10807BD4680BDA0F11400FFF7C8BF11
:1016700090B585B000AF786039607B6803F10403F2
:10168000184608F0C7FBF86004E0FB68184608F04D
:1016900071FBF860FB68002B08D0FB689A7B3B6805
:1016A0009B789A4202D04FF0010301E04FF0000313
:1016B000002BEAD1FB68002B17D03B681B889CB23B
:1016C0007B6803F108013B6803F10202FB689B8918
:1016D00003F10203084611461A4608F06DFA034664
:1016E0009C4202D14FF0010301E04FF00003002BB8
:1016F00010D0FB6899683B6803F10402FB689B8982
:10170000084611461A4611F029FDFB681B681B6844
:10171000F86898474FF00103184607F11407BD46D3
:1017200090BD00BFA0F11400FFF7A2BF80B584B048
:1017300000AFF860B960FA71BB71F968FA79BB79EA
:101740000846B96807F036FDFB68044A1A60FB6872
:10175000184607F11007BD4680BD00BFB0830108E1
:1017600080B582B000AF78600B46FB707B684FF0AD
:1017700000021A717B684FF000025A717B684FF0CB
:1017800000029A717B68FA78DA717B68DB79002B4A
:1017900009D07B68DB794FEA83131846FFF7E6FA36
:1017A00002467B681A607B68184607F10807BD4649
:1017B00080BD00BFF0B585B000AF786039604FF0F4
:1017C0000003FB7300F0AEFF7B689A797B68DB79DE
:1017D0009A4239D27B681A687B681B794FEA831377
:1017E000D2183B68104603F1400402461946D1F86E
:1017F00000E04E688D68C968C2F800E056609560E8
:10180000D16003F1100300F11000A342EDD17B6819
:101810001B791A467B68DB7903F1FF339A4205DABC
:101820007B681B7903F10103DBB201E04FF0000399
:101830007A6813717B689B7903F10103DAB27B68E4
:101840009A714FF00103FB7300F080FFFB7B184699
:1018500007F11407BD46F0BDF0B585B000AF786064
:1018600039604FF00003FB7300F05CFF7B689B79ED
:10187000002B39D07B681A687B685B794FEA831349
:10188000D3183A68104603F1400402461946D1F8CD
:1018900000E04E688D68C968C2F800E05660956047
:1018A000D16003F1100300F11000A342EDD17B6879
:1018B0005B791A467B68DB7903F1FF339A4205DADC
:1018C0007B685B7903F10103DBB201E04FF00003B9
:1018D0007A6853717B689B7903F1FF33DAB27B68D6
:1018E0009A714FF00103FB7300F030FFFB7B184649
:1018F00007F11407BD46F0BD80B584B000AFF860B5
:101900000B467A60FB72FB681B6803F120031B68BF
:10191000FA6802F11202F86811469847FB6803F171
:1019200012037868194600F065F84FF00103184675
:1019300007F11007BD4680BD80B584B000AFF860E8
:101940000B467A60FB72FB6803F152037868194614
:1019500000F050F84FF00103184607F11007BD469C
:1019600080BD00BF80B586B000AFF860B960FA7185
:10197000BB8007F110031846FFF706FA07F11003C2
:10198000B8681946FFF714FA4FF00003184607F13C
:101990001807BD4680BD00BF80B485B000AFF860B9
:1019A000B960FA71BB804FF00003184607F11407C5
:1019B000BD4680BC704700BF80B582B000AF786084
:1019C00013460A46FA703B807B681B6803F12403C8
:1019D0001B687A6802F152027868114698470346FC
:1019E000002B0CBF00230123DBB2184607F10807C8
:1019F000BD4680BD80B483B000AF786039607B683D
:101A00003A681A607B684FF040029A8007F10C0731
:101A1000BD4680BC704700BF80B582B000AF786023
:101A20007B68002B02D0786811F0CEF807F1080728
:101A3000BD4680BD80B489B000AFF860B9607A60FF
:101A40003B60FB6803F1030323F00303BB61BB6846
:101A5000A3F104037B61BA697B69D318A3F1C803BE
:101A60003B617A683B69C3F8A8203B694FF00002EC
:101A7000C3F8AC203B694FF00002C3F8B0203B69CB
:101A80004FF00002C3F8B4203B694FF00002C3F8E6
:101A9000B8203B6823F001023B69C3F8C02041F63F
:101AA0000543C0F6000323F001023B69C3F8BC20E4
:101AB0003B694FF00452C3F8C4203B694FF0000269
:101AC000C3F880203B694FF00002C3F884203B69D3
:101AD0004FF00002C3F888203B694FF00002C3F8C2
:101AE0008C203B694FF00002C3F890203B694FF017
:101AF0000002C3F894203B694FF00002C3F898201D
:101B00003B694FF00002C3F89C203B694FF0000294
:101B1000C3F8A0203B696FF00602C3F8A4204FF081
:101B20000003FB610BE03A69FB694FEA8303D318BA
:101B30004FF000021A60FB6903F10103FB61FB69CE
:101B40001F2BCCBF00230123DBB2002BEBD1BA69E2
:101B50007B69D318A3F1C803184607F12407BD46D3
:101B600080BC704780B483B000AF78604FF46D43A1
:101B7000CEF200034FF46D42CEF20002526842F002
:101B800080525A6007F10C07BD4680BC704700BF09
:101B900080B400AF4FF46D43CEF200034FF46D42BA
:101BA000CEF20002526842F080525A60BD4680BCBC
:101BB000704700BFB0B500AF40F65413C2F2000347
:101BC0001B6818464FF0000140F65813C2F200039C
:101BD0001C6822464FF0000302FB01F500FB03F4F2
:101BE0002C19A0FB0223E1180B46104619464FF4AE
:101BF0007A724FF0000316F035F802460B46134692
:101C00001846B0BD80B400AFFEE700BF80B483B01B
:101C100000AF78607B681B7C002B0CBF0023012386
:101C2000DBB2184607F10C07BD4680BC704700BF09
:101C300080B483B000AF786007F10C07BD4680BC6C
:101C4000704700BF80B483B000AF786007F10C0725
:101C5000BD4680BC704700BF80B584B000AFF8605F
:101C6000B9607A60FB680D4A1A60FB68BA685A610D
:101C7000FB687A689A60FB689B681846FFF776F8FD
:101C80000246FB685A60FB684FF000021A74FB685A
:101C9000184607F11007BD4680BD00BF208401082B
:101CA00080B582B000AF78607B680E4A1A607868B1
:101CB00000F062F87B685B681846FFF7ADFE7B6852
:101CC0004FF000025A604FF0000303F00103002BB5
:101CD00002D07868FFF7A0FE7B68184607F1080776
:101CE000BD4680BD2084010880B582B000AF786019
:101CF0007868FFF7D5FF7868FFF78EFE7B68184697
:101D000007F10807BD4680BD80B582B000AF78609E
:101D10007B681B6803F11C031B68786898477B6825
:101D20001B6803F114031B68786898474FF00003A1
:101D3000184607F10807BD4680BD00BF80B582B0D8
:101D400000AF78607B681B7C002B11D07B684FF064
:101D500000021A747B681B6803F124031B6878680F
:101D600098477B685B691846796800F0E5F8FEE7FC
:101D700007F10807BD4680BD80B582B000AF78602E
:101D80007B681B7C002B10D07B684FF000021A741C
:101D90007B685B691846796800F0CEF87B681B6841
:101DA00003F124031B687868984707F10807BD46CC
:101DB00080BD00BF80B584B000AF78600B467B80EB
:101DC000FFF7F8FE02467B88D318FB607B685B69EF
:101DD0001846796800F0A4F8FFF7ECFE0246FB68AD
:101DE0009A422CBF00230123DBB2002BEED107F176
:101DF0001007BD4680BD00BF80B582B000AF7860DF
:101E00007B681B7C002B10D17B684FF001021A7499
:101E10007B681B6803F120031B68786898477B6820
:101E20005B691846796800F051F807F10807BD466C
:101E300080BD00BF80B582B000AF78600B467B806C
:101E40007B68184608F038F87B68084A1A607A6898
:101E50007B88104619464FF0000208F0A5F87B6811
:101E6000184607F10807BD4680BD00BF1084010871
:101E700080B582B000AF7860FFF79CFE034618463D
:101E800007F10807BD4680BD80B483B000AF78601D
:101E90004FF47A73184607F10C07BD4680BC7047B3
:101EA00080B483B000AF78607B68074A1A6040F660
:101EB0004813C2F200037A681A607B68184607F17B
:101EC0000C07BD4680BC7047F883010880B584B01C
:101ED00000AF786039604FF00003FB6000F022FC37
:101EE0003B685A683B689B68104619463A6841F659
:101EF0000953C0F60003FFF79DFDB8607B681B68BF
:101F00001B687868B9689847F86000F01FFC3B6868
:101F1000FA68DA60FB68184607F11007BD4680BD15
:101F200080B582B000AF78603960FFF731FE07F10D
:101F30000807BD4680BD00BF80B582B000AF7860A5
:101F400039607B681B6803F108031B683A68D26834
:101F500078681146984703461846FFF703FE7B68EA
:101F60001B6803F104031B683A68D268786811465D
:101F7000984707F10807BD4680BD00BF80B483B015
:101F800000AF0346FB714FF46143CEF2000397F9B3
:101F900007204FEA5212F97901F01F014FF00100BA
:101FA00000FA01F143F8221007F10C07BD4680BC8E
:101FB000704700BF80B582B000AF7860786810F0DD
:101FC000FBFD0346184607F10807BD4680BD00BF6C
:101FD00080B582B000AF78607B68074A1A607B6882
:101FE00003F10803184607F0D1FE7B68184607F195
:101FF0000807BD4680BD00BF1089010880B582B0CA
:1020000000AF78600B46FB707B685B681B6803F170
:1020100004031B687A6850687A68117AFA789847DE
:1020200007F10807BD4680BD80B582B000AF78607B
:102030007B685B681B6803F108031B687A6851685A
:102040007A68D26808461146984707F10807BD46E6
:1020500080BD00BF80B582B000AF78600B46FB70DA
:10206000FB78002B0DD07B685B681B6803F10803CD
:102070001B687A6851687A68D268084611469847A2
:102080000CE07B685B681B6803F110031B687A68CF
:1020900051687A68D26808461146984707F10807E0
:1020A000BD4680BD80B582B000AF78607B685B685C
:1020B0001B6803F110031B687A6851687A68D2685C
:1020C00008461146984707F10807BD4680BD00BF86
:1020D00080B582B000AF78607B685B681B6803F1F5
:1020E00014031B687A6852681046984702467B685A
:1020F000DB681340002B0CBF00230123DBB2184622
:1021000007F10807BD4680BD80B483B000AF78609A
:102110007B68044A1A607B68184607F10C07BD46C5
:1021200080BC70478088010880B483B000AF7860BD
:102130000B46FB707B68064A1A607B68FA781A7156
:102140007B68184607F10C07BD4680BC704700BF8E
:102150007088010880B483B000AF786007F10C0785
:10216000BD4680BC704700BF80B483B000AF7860CC
:1021700007F10C07BD4680BC704700BF80B483B038
:1021800000AF78607B68DB68184607F10C07BD4636
:1021900080BC704780B483B000AF786007F10C0753
:1021A000BD4680BC704700BF80B483B000AF78608C
:1021B00007F10C07BD4680BC704700BF80B483B0F8
:1021C00000AF78607B68DB68184607F10C07BD46F6
:1021D00080BC704780B483B000AF786039607B68A2
:1021E0005B683A6892B21A8307F10C07BD4680BC5F
:1021F000704700BF80B485B000AFF860B9607A6006
:10220000FB685B68BA6891B27A6892B20A4092B28F
:102210001A83FB685B687A6892B26FEA020291B235
:10222000BA6892B20A4092B25A8307F11407BD46C7
:1022300080BC704780B483B000AF786039607B6841
:102240005B683A6892B25A8307F10C07BD4680BCBE
:10225000704700BF80B483B000AF78607B685B6874
:102260001B69184607F10C07BD4680BC704700BFCC
:1022700080B485B000AFF860B9601346FB80FB689E
:10228000BA681A60FB68FA889A80FB68184607F1FA
:102290001407BD4680BC704780B485B000AFF860BD
:1022A000B9601346FB80BB68002B0BD0FB88002B6A
:1022B00008D0FB68BA681A60FB68FA889A804FF009
:1022C000010301E04FF00003184607F11407BD4673
:1022D00080BC704780B483B000AF78607B681B68B7
:1022E000184607F10C07BD4680BC704780B483B028
:1022F00000AF78607B689B88002B14BF002301230C
:10230000DBB2184607F10C07BD4680BC704700BF22
:1023100080B483B000AF78607B689B88184607F173
:102320000C07BD4680BC704780B483B000AF7860B6
:102330000B467B807B689B887A889A420DD87B68A5
:102340001A687B88D2187B681A607B689A887B88B9
:10235000D31A9AB27B689A8007E07B684FF000023C
:102360001A607B684FF000029A8007F10C07BD46A7
:1023700080BC704780B483B000AFF871B9717A71D6
:102380003B713B794FEA03339AB27B7903F00F0339
:102390004FEA03239BB213439AB2BB794FEA03136C
:1023A0009BB2DBB29BB213439AB2FB799BB203F0B0
:1023B0000F039BB213439BB29BB2184607F10C0765
:1023C000BD4680BC704700BF80B483B000AF78606A
:1023D0007B681B7803F01F03DBB2184607F10C077C
:1023E000BD4680BC704700BF80B483B000AF78604A
:1023F0007B681B784FEA6313DBB203F00303DBB2A5
:10240000184607F10C07BD4680BC704780B483B006
:1024100000AF78607B681B784FEAD313DBB21846B5
:1024200007F10C07BD4680BC704700BF80B483B085
:1024300000AF78607B685B78184607F10C07BD46F3
:1024400080BC704780B483B000AF78607B685B88E5
:102450009BB2184607F10C07BD4680BC704700BF11
:1024600080B483B000AF78607B685B889BB2DBB2DE
:10247000184607F10C07BD4680BC704780B483B096
:1024800000AF78607B685B889BB24FEA2323DBB2A6
:10249000184607F10C07BD4680BC704780B483B076
:1024A00000AF78607B689B889BB2DBB2184607F16F
:1024B0000C07BD4680BC704780B483B000AF786025
:1024C0007B68DB889BB2184607F10C07BD4680BCD1
:1024D000704700BF80B483B000AF78607B684FF076
:1024E000000283F880207B684FF0000283F881208F
:1024F0007B684FF0000283F882207B68184607F162
:102500000C07BD4680BC704780B582B000AF7860D4
:102510007B681B6803F104031B6878684FF00101B6
:10252000984707F10807BD4680BD00BF80B582B05F
:1025300000AF78607B681B6803F104031B68786850
:102540004FF00001984707F10807BD4680BD00BF66
:1025500080B582B000AF78607B681B6803F104032C
:102560001B687A68527982F00102D2B2786811460B
:10257000984707F10807BD4680BD00BF80B584B00D
:1025800000AF78607B681B79FB737B681B6803F185
:1025900014031B687868984703461A467B681A71CB
:1025A0007B681B79002B08D0FB7B83F00103DBB237
:1025B000002B02D04FF001030EE07B681B7983F003
:1025C0000103DBB2002B05D0FB7B002B02D04FF0C8
:1025D000020301E04FF00003184607F11007BD4663
:1025E00080BD00BF80B582B000AF78600B46FB7045
:1025F0007B681B6803F104031B68FA78786811464E
:102600009847FB78184607F10807BD4680BD00BF14
:1026100090B583B000AF786039607B681B6803F1C8
:1026200004031C683B681B6803F114031B683868CB
:102630009847034678681946A0477B685B79184637
:1026400007F10C07BD4690BD80B582B000AF786041
:102650007B681B6803F114031B687868984703467E
:10266000184607F10807BD4680BD00BF80B582B09F
:1026700000AF78607B689B681B6803F108031B68E8
:102680007A6892681046984707F10807BD4680BDF2
:1026900080B582B000AF78607B689B681B6803F1EF
:1026A0000C031B687A6892681046984707F1080780
:1026B000BD4680BD80B582B000AF78600B467B80A0
:1026C0007B684FF0000283F83C207B689B681B68A6
:1026D00003F108031B687A689268104698477B8864
:1026E0004FF47A7202FB03F27B685B69B2FBF3F290
:1026F0007B681A6107F10807BD4680BD80B582B0CE
:1027000000AF78600B46FB7000F042F8FB78002BBE
:1027100001D000F007F87B68184607F10807BD46AE
:1027200080BD00BF80B400AF72B640F64C13C2F259
:1027300000031B7803F10103DAB240F64C13C2F236
:1027400000031A70BD4680BC704700BF80B400AF64
:1027500040F64C13C2F200031B78002B0CD040F65D
:102760004C13C2F200031B7803F1FF33DAB240F6D8
:102770004C13C2F200031A7040F64C13C2F200036D
:102780001B78002B00D162B6BD4680BC704700BFED
:1027900080B400AFBD4680BC704700BF80B582B03A
:1027A00000AF0346FB80FB88184614F0C3FE0246C8
:1027B0000B46104619464FF000024FF40043C4F296
:1027C000300314F01DFF02460B461046194615F063
:1027D000D9F90346FB8004E000BFFB8803F1FF3317
:1027E000FB80FB88002B0CBF00230123DBB2002BF6
:1027F000F2D107F10807BD4680BD00BF80B582B0A9
:1028000000AF0346FB8007E04FF47A70FFF7C6FF86
:10281000FB8803F1FF33FB80FB88002B0CBF0023F8
:102820000123DBB2002BEFD107F10807BD4680BDC5
:1028300080B487B000AF4FF46D43CEF200034FF485
:102840006D42CEF20002D2F8882042F47002C3F842
:1028500088204FF46053C4F202034FF46052C4F274
:102860000202126842F001021A604FF46053C4F28F
:1028700002034FF000029A604FF46053C4F2020367
:102880004FF46052C4F20202126822F0847222F401
:1028900080321A604FF46053C4F2020343F2100214
:1028A000C2F200425A604FF46053C4F202034FF484
:1028B0006052C4F20202126822F480221A604FF4BD
:1028C0006053C4F202034FF00002DA604FF4605329
:1028D000C4F202034FF46052C4F20202126842F4DE
:1028E00080321A604FF46053C4F202034FF4605216
:1028F000C4F20202126842F001021A604FF00003B3
:102900007B6111E04FF46053C4F202031B6803F4CF
:102910000033002B0CBF00230123DBB2002B0ED1B0
:102920007B6903F101037B617A6944F6FF739A4284
:102930008CBF00230123DBB2002BE3D100E000BFFA
:102940004FF46053C4F202031B6803F40033002BFE
:102950000CBF00230123DBB2002B00F081804FF479
:102960007053C4F2020340F205621A604FF46053E0
:10297000C4F202034FF46052C4F20202126C42F03D
:1029800080521A644FF4E043C4F200034FF4E04273
:10299000C4F20002126842F480421A604FF460539D
:1029A000C4F202034FF46052C4F20202926842F48D
:1029B00034429A604FF008033B614FF4A873FB6008
:1029C0004FF00403BB604FF007037B604FF460538C
:1029D000C4F2020345F20842C0F241725A604FF459
:1029E0006053C4F202034FF46052C4F20202126850
:1029F00042F080721A6000BF4FF46053C4F20203C9
:102A00001B6803F00073002B14BF00230123DBB20B
:102A1000002BF1D14FF46053C4F202034FF4605223
:102A2000C4F20202926822F003029A604FF46053EB
:102A3000C4F202034FF46052C4F20202926842F000
:102A400002029A604FF46053C4F202039B6803F0E1
:102A50000C03082B0CBF00230123DBB2002BF1D1A8
:102A60004FF46D43CEF200034FF000629A6007F11D
:102A70001C07BD4680BC704780B58EB000AFF860C3
:102A80007A600A46FA72BB72FB7A4FEA430387F810
:102A90003730FB7A4FEAE30387F83630FB7A4FF0A2
:102AA000010202FA03F36FEA03033B6397F837303E
:102AB0004FF0030202FA03F36FEA0303FB62FB7AAF
:102AC00003F007034FEA83034FF00F0202FA03F308
:102AD0006FEA0303BB627B6803F0030297F83730A9
:102AE00002FA03F37B627B684FEA132303F00302CD
:102AF00097F8373002FA03F33B627B684FEA13130F
:102B000003F00102FB7A02FA03F3FB617B684FEAF0
:102B1000133303F0030297F8373002FA03F3BB6173
:102B2000BB7A03F00F02FB7A03F007034FEA83033B
:102B300002FA03F37B61FFF7F5FDFB681A68FB6A95
:102B40001A407B6A1A43FB681A60FB68DA68FB6A02
:102B50001A403B6A1A43FB68DA60FB685A683B6BB1
:102B60001A40FB691A43FB685A60FB689A68FB6A63
:102B70001A40BB691A43FB689A6097F8362097F8A9
:102B80003610FB6801F1080153F82110BB6A1940A7
:102B90007B691943FB6802F1080243F82210FFF732
:102BA000D5FD07F13807BD4680BD00BF80B586B0B2
:102BB00000AF03463960FB714FF00003FB825FE01A
:102BC000FA8A40F20403C2F2000353F822304FEABB
:102BD0002342FB799A424FD1FA8A40F20403C2F2AF
:102BE000000353F822304FEA2333DBB203F00F0324
:102BF0007B75FA8A40F20403C2F2000353F82230D4
:102C00004FEA2313DBB203F00F033B75FA8A40F25D
:102C10000403C2F2000353F82230DBB203F00F03C7
:102C2000FB743B6803F00F03032B03D03B6843F0B6
:102C300002033B604FF46053C4F202034FF460524E
:102C4000C4F20202116B7A7D4FF0010000FA02F229
:102C50000A431A637B7D4FEA832303F1804303F524
:102C60000033FB603A7DFB7CF86811463A68FFF759
:102C700003FF4FF0010313E0FB8A03F10103FB8222
:102C8000FA8A40F20403C2F2000353F82230002B08
:102C90000CBF00230123DBB2002B91D14FF00003C6
:102CA000184607F11807BD4680BD00BF80B500AFCC
:102CB000FDF7CEFA024640F6F013C2F200031A60A6
:102CC00040F65413C2F200031B6803F1010240F600
:102CD0005413C2F200031A6040F65013C2F200030C
:102CE0001A6840F6F013C2F200031B6818464FF052
:102CF00001019047024640F6F013C2F200031A6049
:102D000040F6F013C2F200031B681846FDF7ABFA59
:102D100080BD00BF80B500AFFDF79AFA024640F6CD
:102D2000EC13C2F200031A6040F65013C2F2000323
:102D30001A6840F6EC13C2F200031B6818464FF005
:102D400000019047024640F6EC13C2F200031A60FD
:102D500040F6EC13C2F200031B681846FDF783FA35
:102D600080BD00BF80B582B000AF786039607B68FD
:102D700018464FF010013A6803F0AAFD7B681C4A20
:102D80001A607A6840F65C13C2F200031A604FF4CE
:102D90006053C4F202034FF46052C4F20202526C58
:102DA00042F480725A644FF40C53C4F201034FF49E
:102DB0000C52C4F20102526842F440325A604FF49D
:102DC0000053C4F2010340F601029A604FF400532D
:102DD000C4F201034FF020025A604FF01200FFF7D7
:102DE000CDF87B68184607F10807BD4680BD00BFD7
:102DF000C088010880B584B000AF786013460A46E9
:102E0000FA70BB70BB7803F00703FB60FB780F2BF5
:102E100000F2718101A252F823F000BF5D2E00087C
:102E2000832E0008AD2E0008D72E0008012F0008C1
:102E30002B2F0008552F00087F2F0008A92F00080E
:102E4000D32F0008FD2F0008233000084D30000864
:102E500077300008A1300008CB3000084FF00800A0
:102E60004FF00301FFF7A2FE4FF40053C4F2010339
:102E70004FF40052C4F201021169FA680A431A6160
:102E80003AE14FF009004FF00301FFF78FFE4FF4D6
:102E90000053C4F201034FF40052C4F2010211695D
:102EA000FA684FEAC2020A431A6125E14FF00A00AC
:102EB0004FF00301FFF77AFE4FF40053C4F2010311
:102EC0004FF40052C4F201021169FA684FEA82120B
:102ED0000A431A6110E14FF00B004FF00301FFF7B6
:102EE00065FE4FF40053C4F201034FF40052C4F2E4
:102EF00001021169FA684FEA42220A431A61FBE0B3
:102F00004FF000004FF00301FFF750FE4FF4005365
:102F1000C4F201034FF40052C4F201021169FA68CD
:102F20004FEA02320A431A61E6E04FF001004FF027
:102F30000301FFF73BFE4FF40053C4F201034FF4CB
:102F40000052C4F201021169FA684FEAC2320A4320
:102F50001A61D1E04FF002004FF00301FFF726FEA7
:102F60004FF40053C4F201034FF40052C4F20102C3
:102F70001169FA684FEA82420A431A61BCE04FF0D5
:102F800003004FF00301FFF711FE4FF40053C4F2AA
:102F900001034FF40052C4F201021169FA684FEACA
:102FA00042520A431A61A7E04FF004004FF00301B8
:102FB000FFF7FCFD4FF40053C4F201034FF400523D
:102FC000C4F201021169FA684FEA02620A431A6107
:102FD00092E04FF005004FF00301FFF7E7FD4FF4DB
:102FE0000053C4F201034FF40052C4F2010211690C
:102FF000FA684FEAC2620A431A617DE04FF00C00A2
:103000004FF00301FFF7D2FD4FF40053C4F2010368
:103010004FF40052C4F20102D168FA680A43DA6040
:103020006AE04FF00D004FF00301FFF7BFFD4FF4D2
:103030000053C4F201034FF40052C4F20102D168FC
:10304000FA684FEAC2020A43DA6055E04FF00E0018
:103050004FF00301FFF7AAFD4FF40053C4F2010340
:103060004FF40052C4F20102D168FA684FEA8212AA
:103070000A43DA6040E04FF00F004FF00301FFF722
:1030800095FD4FF40053C4F201034FF40052C4F213
:103090000102D168FA684FEA42220A43DA602BE063
:1030A0004FF006004FF00301FFF780FD4FF400538F
:1030B000C4F201034FF40052C4F20102D168FA686D
:1030C0004FEA02320A43DA6016E04FF007004FF091
:1030D0000301FFF76BFD4FF40053C4F201034FF4FB
:1030E0000052C4F20102D168FA684FEAC2320A43C0
:1030F000DA6000BF00E000BF07F11007BD4680BDE9
:1031000080B483B000AF78604FF40053C4F2010381
:10311000DB6C9BB2184607F10C07BD4680BC7047BC
:1031200080B483B000AF78600B46FB704FF400535F
:10313000C4F20103FA7802F01F025A634FF40053FD
:10314000C4F201034FF40052C4F20102926842F04B
:1031500080429A6007F10C07BD4680BC704700BFF3
:1031600080B500AF4FF40053C4F201034FF4005296
:10317000C4F20102126822F002021A6040F65C13E7
:10318000C2F200031B681B6803F110031A6840F6C3
:103190005C13C2F200031B681846904780BD00BF55
:1031A00080B582B000AF786013460A46FA70BB70F3
:1031B0007A68BB7810461946FEF7B6FF7B68814AED
:1031C0001A60FB7803F1FF33042B00F2A68001A202
:1031D00052F823F0E9310008273200086132000874
:1031E0009F320008DD3200087A684FF00003C4F215
:1031F000010393604FF46053C4F202034FF4605232
:10320000C4F20202526C42F001025A644FF0A6006E
:103210004FF00001FFF7CAFC4FF0A7004FF000018C
:10322000FFF7C4FC7AE07B684FF080429A604FF46D
:103230006053C4F202034FF46052C4F20202126CF3
:1032400042F001021A644FF0B1004FF00001FFF7A5
:10325000ADFC4FF0B2004FF00001FFF7A7FC5DE0BE
:103260007A684FF48063C4F2000393604FF46053B4
:10327000C4F202034FF46052C4F20202126C42F034
:1032800002021A644FF0B6004FF00001FFF78EFC07
:103290004FF0B7004FF00001FFF788FC3EE07A687E
:1032A0004FF40063C4F2000393604FF46053C4F220
:1032B00002034FF46052C4F20202126C42F00402A4
:1032C0001A644FF0BB004FF00001FFF76FFC4FF0A6
:1032D000BC004FF00001FFF769FC1FE07A684FF473
:1032E0004063C4F2000393604FF46053C4F20203DE
:1032F0004FF46052C4F20202126C42F008021A64E7
:103300004FF0C0004FF00001FFF750FC4FF0C1003C
:103310004FF00001FFF74AFC00E000BF7B689B68AC
:103320004FF001021A607B689B684FF00002DA6080
:103330007B689B684FF001025A617B689B684FF085
:1033400000029A627B689B684FF6FF72DA627B68C4
:103350009B687A689268926822F007029A607B689C
:103360009B687A689268926842F003029A607B6870
:103370009B687A689268126A22F022021A62BB780D
:1033800003F00103002B08D07B689B687A68926881
:10339000126A42F002021A6205E07B689B687A6852
:1033A0009268126A1A627B689B684FF000025A6248
:1033B0007B684FF000029A817B68184607F1080786
:1033C000BD4680BD6088010880B485B000AF7860DC
:1033D0007B689B685B6AFB817B689B89FA89D31A4F
:1033E0009BB29BB21BB2BB607B68FA899A81BB68B7
:1033F000184607F11407BD4680BC704780B582B0FF
:1034000000AF78607B68074A1A607B6803F10403A9
:10341000184606F0BBFC7B68184607F10807BD4656
:1034200080BD00BF4088010880B582B000AF7860E1
:1034300013460A46FA70BB707B681846FFF7DEFF3A
:103440007B68344A1A60BB7803F00F03DAB27B68FA
:103450001A72FB7803F00703DAB27B685A727B6852
:103460001B7A1A4640F66013C2F20003796843F8EB
:1034700022107B681B7A0F2B45D801A252F823F04B
:10348000C1340008CB340008D5340008DF3400080C
:10349000E9340008F3340008F3340008F33400087A
:1034A000F3340008F3340008FD340008FD3400084C
:1034B000FD340008FD340008FD340008FD34000828
:1034C0007B684FF006029A721DE07B684FF007029E
:1034D0009A7218E07B684FF008029A7213E07B68DA
:1034E0004FF009029A720EE07B684FF00A029A725E
:1034F00009E07B684FF017029A7204E07B684FF096
:1035000028029A7200BF7B68184607F10807BD467B
:1035100080BD00BF2088010890B583B000AF7860FF
:103520004FF46053C4F202034FF46052C4F202023B
:10353000526C42F480425A644FF46053C4F2010367
:103540007A68127A4FEA9202D1B208464FF460527A
:10355000C4F2010201F1020152F821107A68527A94
:1035600014467A68127A02F003024FEA820204FAE1
:1035700002F2114300F1020243F822104FF470539B
:10358000C4F201034FF47052C4F2010211687A6868
:10359000127A4FF0010000FA02F20A431A607B68C7
:1035A0009B7A5BB21846FEF7E9FC07F10C07BD46B3
:1035B00090BD00BF90B482B000AF78604FF460530C
:1035C000C4F201037A68127A4FEA9202D1B2084635
:1035D0004FF46052C4F2010201F1020152F82110CD
:1035E0007A68527A14467A68127A02F003024FEA35
:1035F000820204FA02F26FEA0202114000F10202B2
:1036000043F8221007F10807BD4690BC704700BF81
:1036100080B483B000AF78600B46FB70FB78022B60
:1036200004D0032B4CD0012B25D06CE04FF4705309
:10363000C4F201034FF47052C4F20102D1687A68F7
:10364000127A4FF0010000FA02F20A43DA604FF4F6
:103650007053C4F201034FF47052C4F20102916836
:103660007A68127A4FF0010000FA02F26FEA020261
:103670000A409A606EE04FF47053C4F201034FF4B5
:103680007052C4F20102D1687A68127A4FF00100D8
:1036900000FA02F26FEA02020A40DA604FF4705355
:1036A000C4F201034FF47052C4F2010291687A68C7
:1036B000127A4FF0010000FA02F20A439A6049E0E0
:1036C0004FF47053C4F201034FF47052C4F201027C
:1036D000D1687A68127A4FF0010000FA02F20A43C8
:1036E000DA604FF47053C4F201034FF47052C4F225
:1036F000010291687A68127A4FF0010000FA02F232
:103700000A439A6026E04FF47053C4F201034FF469
:103710007052C4F20102D1687A68127A4FF0010047
:1037200000FA02F26FEA02020A40DA604FF47053C4
:10373000C4F201034FF47052C4F2010291687A6836
:10374000127A4FF0010000FA02F26FEA02020A4018
:103750009A6000BF07F10C07BD4680BC704700BFF0
:1037600080B582B000AF78607B681B6803F104030A
:103770001B687A681046984707F10807BD4680BD68
:1037800080B582B000AF0346FB714FF47053C4F2B2
:1037900001034FF47052C4F201025169FA794FF0FB
:1037A000010000FA02F20A435A61FA7940F6601306
:1037B000C2F2000353F822301846FFF7D1FF07F199
:1037C0000807BD4680BD00BF80B500AF4FF00000C8
:1037D000FFF7D6FF80BD00BF80B500AF4FF00100FE
:1037E000FFF7CEFF80BD00BF80B500AF4FF00200F5
:1037F000FFF7C6FF80BD00BF80B500AF4FF00300EC
:10380000FFF7BEFF80BD00BF80B500AF4FF00400E2
:10381000FFF7B6FF80BD00BF80B582B000AF4FF0AC
:1038200005037B601AE04FF47053C4F201035A6938
:103830004FF001017B6801FA03F31340002B0CBF2A
:1038400000230123DBB2002B04D07B68DBB21846D7
:10385000FFF796FF7B6803F101037B607B68092B10
:10386000CCBF00230123DBB2002BDCD107F108071A
:10387000BD4680BD80B582B000AF4FF00A037B60CB
:103880001AE04FF47053C4F201035A694FF001017A
:103890007B6801FA03F31340002B0CBF00230123C4
:1038A000DBB2002B04D07B68DBB21846FFF768FF61
:1038B0007B6803F101037B607B680F2BCCBF002387
:1038C0000123DBB2002BDCD107F10807BD4680BD28
:1038D00080B582B000AF78600B467B807A687B88C9
:1038E00003F00F034FEA8333104619464FF0FF02EF
:1038F00004F036F87B68114A1A607B884FEA23236C
:1039000003F500534FEA83331A467B68DA607B88FD
:103910004FEA2313DBB203F00F03DAB27B681A74A9
:103920007B684FF000025A617B684FF001025A72C7
:103930007B68184607F10807BD4680BD2887010847
:1039400080B483B000AF786039604FF47053C4F234
:103950000203DB6803F48033002B0CBF0023012338
:10396000DBB2002BF1D14FF47053C4F2020340F2EA
:103970002312C4F267525A604FF47053C4F2020328
:1039800048F6AB12CCF6EF525A604FF47053C4F2C3
:1039900002034FF47052C4F20202126922F4803220
:1039A00022F07A021A614FF47053C4F202034FF40A
:1039B0007052C4F2020211697A68127C4FEAC202A4
:1039C0000A4342F002021A614FF47053C4F2020338
:1039D0004FF47052C4F20202126942F480321A614A
:1039E0004FF47053C4F20203DB6803F48033002BFE
:1039F0000CBF00230123DBB2002BF1D14FF4705335
:103A0000C4F202034FF47052C4F20202126922F4AB
:103A1000803222F07A021A614FF47053C4F202032A
:103A20004FF47052C4F20202126942F000421A616D
:103A30004FF47053C4F20203DB6803F48033002BAD
:103A40000CBF00230123DBB2002BF1D107F10C07DF
:103A5000BD4680BC704700BF80B485B000AFF86041
:103A6000B9601346FB714FF47053C4F20203DB6874
:103A700003F48033002B0CBF00230123DBB2002BA7
:103A8000F1D14FF47053C4F2020340F22312C4F296
:103A900067525A604FF47053C4F2020348F6AB12F7
:103AA000CCF6EF525A604FF47053C4F20203DB6855
:103AB00003F48033002B0CBF00230123DBB2002B67
:103AC000F1D14FF47053C4F202034FF47052C4F2B8
:103AD0000202126942F001021A61FB68DA68BB68EF
:103AE000D318FA791A704FF47053C4F20203DB68EA
:103AF00003F48033002B0CBF00230123DBB2002B27
:103B0000F1D14FF47053C4F202034FF47052C4F277
:103B10000202126922F001021A614FF47053C4F2DA
:103B200002034FF47052C4F20202126942F00042E2
:103B30001A614FF47053C4F20203DB6803F480335C
:103B4000002B0CBF00230123DBB2002BF1D107F1C6
:103B50001407BD4680BC704780B483B000AF786066
:103B600039607B68DA683B68D3181B78184607F120
:103B70000C07BD4680BC704780B582B000AF78604E
:103B80007B6818464FF480514FF0FF0203F0E8FEC7
:103B90007B68264A1A604FF46053C4F202034FF464
:103BA0006052C4F20202126C42F080521A644FF466
:103BB000E043C4F200034FF4E042C4F20002126892
:103BC00042F480721A604FF46053C4F202034FF45F
:103BD0006052C4F20202126B42F480221A637A68C5
:103BE0004FF48043C4F20203D3604FF4E043C4F2C5
:103BF00000034FF4E042C4F20002526842F4007243
:103C00005A6000BF4FF4E043C4F200035B6803F066
:103C10000803002B14BF00230123DBB2002BF1D1DA
:103C20007B68184607F10807BD4680BDF886010885
:103C300080B485B000AFF860B9601346FB71FB68D3
:103C4000DA68BB68D318FA791A7007F11407BD4611
:103C500080BC704780B483B000AF786039607B6807
:103C6000DA683B68D3181B78184607F10C07BD4685
:103C700080BC704780B582B000AF78600B46FB70A7
:103C80007B681846FEF740FA7B68664A1A60FB7844
:103C9000082B00F2C08001A252F823F0C13C0008BA
:103CA000E73C00080D3D0008333D0008593D000881
:103CB0007F3D0008A53D0008CB3D0008F13D000810
:103CC0007A684FF00003C4F2020353604FF460536C
:103CD000C4F202034FF46052C4F20202126B42F0CB
:103CE00001021A6398E07A684FF48063C4F2020319
:103CF00053604FF46053C4F202034FF46052C4F2B5
:103D00000202126B42F002021A6385E07A684FF4F5
:103D10000063C4F2020353604FF46053C4F2020321
:103D20004FF46052C4F20202126B42F004021A63B2
:103D300072E07A684FF44063C4F2020353604FF4B8
:103D40006053C4F202034FF46052C4F20202126BD9
:103D500042F008021A635FE07A684FF48053C4F2BD
:103D6000020353604FF46053C4F202034FF46052F5
:103D7000C4F20202126B42F010021A634CE07A683D
:103D80004FF4A053C4F2020353604FF46053C4F2E3
:103D900002034FF46052C4F20202126B42F020029E
:103DA0001A6339E07A684FF4C053C4F202035360D7
:103DB0004FF46053C4F202034FF46052C4F20202A3
:103DC000126B42F040021A6326E07A684FF4E05327
:103DD000C4F2020353604FF46053C4F202034FF481
:103DE0006052C4F20202126B42F080021A6313E0C6
:103DF0007A684FF40053C4F2020353604FF46053E7
:103E0000C4F202034FF46052C4F20202126B42F495
:103E100080721A6300E000BF7B68184607F108074C
:103E2000BD4680BDD886010880B586B000AFF86079
:103E3000B9601346FB714FF00003FB7515E0BB68DA
:103E400003F00103002B08D0FB681B6803F1040397
:103E50001B68F97DFA79F8689847FB7D03F1010347
:103E6000FB75BB684FEA5303BB60FB7D0F2B8CBF18
:103E700000230123DBB2002BE1D107F11807BD4677
:103E800080BD00BF80B588B000AF786013460A4699
:103E9000FA70BB70FB784FEA4303FB74FB784FF07A
:103EA000010202FA03F36FEA0303FB60FB7C4FF0AD
:103EB000030202FA03F36FEA0303BB604FF000034F
:103EC000FB614FF00003BB614FF000037B61BB78E7
:103ED00003F00103002B05D0FB7C4FF0010202FA36
:103EE00003F3FB61BB7803F00403002B07D0FB7CDA
:103EF0004FF0010202FA03F3BA691343BB61BB78C6
:103F000003F00803002B07D0FB7C4FF0020202FAFB
:103F100003F3BA691343BB61BB7803F00203002BC0
:103F200005D0FB784FF0010202FA03F37B61FEF744
:103F3000F9FB7B685B687A6852681168BA6811405F
:103F4000FA690A431A607B685B687A685268D168CC
:103F5000BA681140BA690A43DA607B685B687A68BC
:103F600052685168FA6811407A690A435A60FEF74C
:103F7000EDFB07F12007BD4680BD00BF000000003B
:103F8000B0B586B000AFF8600B467A60FB72FB6894
:103F90001846FEF71DF8FB68C24A1A60FB68FA7AF9
:103FA0001A74FB681B7C03F1FF330B2B00F2668154
:103FB00001A252F823F000BFE93F000823400008A7
:103FC0005940000893400008CD4000080741000810
:103FD000414100087B410008AD410008E74100086D
:103FE000194200084B420008FA684FF00003C4F27F
:103FF0000103536140F6A013C2F20003FA681A608D
:104000004FF46053C4F202034FF46052C4F2020250
:10401000526C42F001025A644FF01900FDF7AEFFF6
:104020002DE1FB684FF080425A6140F6A413C2F2C2
:104030000003FA681A604FF46053C4F202034FF4AD
:104040006052C4F20202126C42F001021A644FF094
:104050001C00FDF793FF12E1FA684FF48063C4F28D
:104060000003536140F6A813C2F20003FA681A6015
:104070004FF46053C4F202034FF46052C4F20202E0
:10408000126C42F002021A644FF01D00FDF776FF39
:10409000F5E0FA684FF40063C4F20003536140F6A0
:1040A000AC13C2F20003FA681A604FF46053C4F212
:1040B00002034FF46052C4F20202126C42F0040296
:1040C0001A644FF01E00FDF759FFD8E0FA684FF46C
:1040D0004063C4F20003536140F6B013C2F2000320
:1040E000FA681A604FF46053C4F202034FF460524E
:1040F000C4F20202126C42F008021A644FF032005D
:10410000FDF73CFFBBE0FA684FF4A053C4F2000394
:10411000536140F6B413C2F20003FA681A604FF418
:104120006053C4F202034FF46052C4F20202126CF4
:1041300042F020021A644FF03700FDF71FFF9EE0A7
:10414000FA684FF48063C4F20103536140F6B81378
:10415000C2F20003FA681A604FF46053C4F202031B
:104160004FF46052C4F20202526C42F002025A64EE
:104170004FF02E00FDF702FF81E0FA684FF4804314
:10418000C4F20103536140F6BC13C2F20003FA68A3
:104190001A604FF46053C4F202034FF46052C4F249
:1041A0000202526C42F480325A6468E0FA684FF4BA
:1041B0008843C4F20103536140F6C013C2F2000306
:1041C000FA681A604FF46053C4F202034FF460526D
:1041D000C4F20202526C42F400325A644FF01900E9
:1041E000FDF7CCFE4BE0FA684FF49043C4F20103B4
:1041F000536140F6C413C2F20003FA681A604FF428
:104200006053C4F202034FF46052C4F20202526CD3
:1042100042F480225A6432E0FA684FF4C053C4F288
:104220000003536140F6C813C2F20003FA681A6033
:104230004FF46053C4F202034FF46052C4F202021E
:10424000126C42F040021A6419E0FA684FF400530D
:10425000C4F20003536140F6CC13C2F20003FA68C3
:104260001A604FF46053C4F202034FF46052C4F278
:104270000202126C42F480721A6400E000BFD7EDB3
:10428000017AB8EE677ADFED087A27EE277ADFED5C
:10429000077A67EE277AC7ED057A4FF001033B6195
:1042A00018E000BFB8860108A037204CBD3786351E
:1042B00000FF7F473A6913464FEA83039B184FEA92
:1042C00043033B6197ED057AF2EE047AC7EE277A55
:1042D000C7ED057A97ED057A5FED0B7AB4EEE77AD4
:1042E000F1EE10FAD4BF00230123DBB2002BE1D1A1
:1042F000D7ED057AFCEEE77AFB68C3ED037AFB683D
:10430000DB68184613F006F902460B4610461946BC
:1043100021A3D3E9002313F073F902460B46144698
:104320001D46386913F0F6F802460B46204629462A
:1043300013F066F902460B461046194618A3D3E956
:10434000002313F087FA02460B461046194613F075
:1043500019FC0246FB685A60FB685B694FF001027A
:104360001A60FB685B694FF00102DA60FB685B6909
:104370004FF001025A61FB685B693A6902F1FF3252
:104380009A62FB685B69FA68D268DA62FB68184671
:1043900007F11807BD46B0BD0000000080842E4123
:1043A00000000000F406844180B584B000AF78605E
:1043B00013460A46FA70BB707B681B7C03F1FF331F
:1043C0000B2B00F2A98101A252F823F0FD43000853
:1043D0006B440008C34400081B45000873450008EF
:1043E00019470008CB4500083B4600086546000811
:1043F00093460008C146000803470008FB78032BDA
:1044000026D801A252F823F01944000827440008D6
:1044100035440008434400084FF0A6004FF0000167
:10442000FEF7C4FB14E04FF0A7004FF00001FEF7C9
:10443000BDFB0DE04FF0A8004FF00001FEF7B6FB0A
:1044400006E04FF0A9004FF00001FEF7AFFB00BF00
:104450004FF00003C4F201034FF00002C4F2010266
:10446000526C42F400425A645FE1FB78032B00F285
:10447000558101A252F823F08944000897440008AE
:10448000A5440008B34400084FF0B1004FF000010C
:10449000FEF78CFB14E04FF0B2004FF00001FEF786
:1044A00085FB0DE04FF0B3004FF00001FEF77EFBFF
:1044B00006E04FF0B4004FF00001FEF777FB00BFBD
:1044C0002CE1FB78032B00F22B8101A252F823F0A0
:1044D000E1440008EF440008FD4400080B450008D3
:1044E0004FF0B6004FF00001FEF760FB14E04FF014
:1044F000B7004FF00001FEF759FB0DE04FF0B80098
:104500004FF00001FEF752FB06E04FF0B9004FF00C
:104510000001FEF74BFB00BF02E1FB78032B00F22A
:10452000018101A252F823F03945000847450008EF
:1045300055450008634500084FF0BB004FF00001EF
:10454000FEF734FB14E04FF0BC004FF00001FEF723
:104550002DFB0DE04FF0BD004FF00001FEF726FBF4
:1045600006E04FF0BE004FF00001FEF71FFB00BF5A
:10457000D8E0FB78032B00F2D78001A252F823F099
:10458000914500089F450008AD450008BB4500085F
:104590004FF0C0004FF00001FEF708FB14E04FF0B1
:1045A000C1004FF00001FEF701FB0DE04FF0C2002B
:1045B0004FF00001FEF7FAFA06E04FF0C3004FF0AB
:1045C0000001FEF7F3FA00BFAEE0FB78032B27D81B
:1045D00001A252F823F000BFE9450008F7450008A2
:1045E00005460008134600084FF0C5004FF00001D3
:1045F000FEF7DCFA14E04FF0C6004FF00001FEF7C2
:10460000D5FA0DE04FF0C7004FF00001FEF7CEFAEB
:1046100006E04FF0C8004FF00001FEF7C7FA00BFF8
:104620004FF48063C4F201034FF48062C4F20102CC
:10463000526C42F400425A6477E0FB78002B02D0BF
:10464000012B07D00DE04FF0CA004FF00001FEF73C
:10465000ADFA06E04FF0CB004FF00001FEF7A6FAEE
:1046600000BF62E0FB78002B06D14FF0AB004FF0AB
:104670000001FEF79BFA00BF4FF48843C4F2010328
:104680004FF48842C4F20102526C42F400425A6470
:104690004BE0FB78002B06D14FF0AC004FF000014F
:1046A000FEF784FA00BF4FF49043C4F201034FF4C5
:1046B0009042C4F20102526C42F400425A6434E067
:1046C000FB78002B02D0012B07D00DE04FF0AD009E
:1046D0004FF00001FEF76AFA06E04FF0AE004FF02F
:1046E0000001FEF763FA00BF4FF4C053C4F20003A9
:1046F0004FF4C052C4F20002526C42F400425A64B9
:1047000013E0FB78002B06D14FF0B0004FF0000112
:10471000FEF74CFA00BF08E000BF06E000BF04E06F
:1047200000BF02E000BF00E000BF4FF07803BB8194
:104730004FF00003FB81BB78002B03D04FF00C033C
:10474000FB8102E04FF00303FB81FB78032B59D878
:1047500001A252F823F000BF694700088B47000808
:10476000B5470008DB4700087B685B697A685269D7
:104770009169BA890A439A617B685B697A68526970
:10478000116AFA890A431A623CE07B685B697A68BD
:1047900052699169BA894FEA02220A439A617B6899
:1047A0005B697A685269116AFA894FEA02120A4310
:1047B0001A6227E07B685B697A685269D169BA89B5
:1047C0000A43DA617B685B697A685269116AFA891F
:1047D0004FEA02220A431A6214E07B685B697A6836
:1047E0005269D169BA894FEA02220A43DA617B68C9
:1047F0005B697A685269116AFA894FEA02320A43A0
:104800001A6200BF07F11007BD4680BD80B483B0B7
:1048100000AF786013460A467A807B707B887A689E
:10482000D26802FB03F34FEA13437B807B78032BB0
:104830001ED801A252F823F0494800085348000846
:104840005D480008674800087B685B697A885A639E
:104850000EE07B685B697A889A6309E07B685B6934
:104860007A88DA6304E07B685B697A881A6400BF3F
:1048700007F10C07BD4680BC704700BF80B582B011
:1048800000AF78607B685B694FF000021A617B685B
:104890005B694FF000021A617B681B6803F110032B
:1048A0001B687A681046984707F10807BD4680BD27
:1048B00080B500AF4FF00003C4F201031B6903F0A1
:1048C0000103002B0CBF00230123DBB2002B0FD010
:1048D00040F6A013C2F200031B681846FFF7CEFF94
:1048E0004FF00003C4F201034FF000021A611AE016
:1048F0004FF48843C4F201031B69002B0CBF002353
:104900000123DBB2002B0ED040F6C013C2F200032D
:104910001B681846FFF7B2FF4FF48843C4F2010347
:104920004FF000021A6180BD80B500AF40F6A413BD
:10493000C2F200031B681846FFF7A0FF80BD00BF4E
:1049400080B500AF40F6A813C2F200031B681846FA
:10495000FFF794FF80BD00BF80B500AF40F6AC13F9
:10496000C2F200031B681846FFF788FF80BD00BF36
:1049700080B500AF40F6B013C2F200031B681846C2
:10498000FFF77CFF80BD00BF80B500AF40F6B413D9
:10499000C2F200031B681846FFF770FF80BD00BF1E
:1049A00080B500AF40F6B813C2F200031B6818468A
:1049B000FFF764FF80BD00BF80B588B000AFF8602E
:1049C0007A600A46FA72BB72F968BA7A97F82830A8
:1049D000084611461A4603F0BDF8FB68CD4A1A6036
:1049E000FB7A03F1FF33052B00F2568101A252F846
:1049F00023F000BF0D4A0008874A0008014B000859
:104A00007B4B0008CD4B00081F4C0008FA684FF4A0
:104A10008053C4F20103936140F6D013C2F2000345
:104A2000FA681A604FF46053C4F202034FF4605204
:104A3000C4F20202526C42F010025A644FF0D400E9
:104A40004FF00001FEF7B2F84FF0D5004FF0000133
:104A5000FEF7ACF87B68002B05DA4FF0D3004FF07F
:104A60000001FEF7A3F87B6803F08043002B05D01C
:104A70004FF0D2004FF00001FEF798F84FF02500FC
:104A8000FDF77CFA09E1FA684FF48843C4F20003A9
:104A9000936140F6D413C2F20003FA681A604FF42F
:104AA0006053C4F202034FF46052C4F20202126C6B
:104AB00042F400321A644FF0D9004FF00001FEF7C3
:104AC00075F84FF0DA004FF00001FEF76FF87B68E1
:104AD000002B05DA4FF0D8004FF00001FEF766F822
:104AE0007B6803F08043002B05D04FF0D7004FF0D8
:104AF0000001FEF75BF84FF02600FDF73FFACCE02F
:104B0000FA684FF49043C4F20003936140F6D8135F
:104B1000C2F20003FA681A604FF46053C4F2020351
:104B20004FF46052C4F20202126C42F480221A6402
:104B30004FF0DE004FF00001FEF738F84FF0DF00D5
:104B40004FF00001FEF732F87B68002B05DA4FF0DA
:104B5000DD004FF00001FEF729F87B6803F0804389
:104B6000002B05D04FF0DC004FF00001FEF71EF8DF
:104B70004FF02700FDF702FA8FE0FA684FF49843F0
:104B8000C4F20003936140F6DC13C2F20003FA683A
:104B90001A604FF46053C4F202034FF46052C4F23F
:104BA0000202126C42F400221A644FF0CC004FF063
:104BB0000001FDF7FBFF4FF0CD004FF00001FDF7C6
:104BC000F5FF4FF03400FDF7D9F966E0FA684FF4CD
:104BD000A043C4F20003936140F6E013C2F2000365
:104BE000FA681A604FF46053C4F202034FF4605243
:104BF000C4F20202126C42F480121A644FF0CE002A
:104C00004FF00001FDF7D2FF4FF0CF004FF0000151
:104C1000FDF7CCFF4FF03500FDF7B0F93DE0FA6845
:104C20004FF4A053C4F20103936140F6E413C2F2BF
:104C30000003FA681A604FF46053C4F202034FF4A1
:104C40006052C4F20202526C42F020025A644FF0E9
:104C5000E3004FF00001FDF7A9FF4FF0E4004FF033
:104C60000001FDF7A3FF7B68002B05DA4FF0E2009F
:104C70004FF00001FDF79AFF7B6803F08043002BA3
:104C800005D04FF0E1004FF00001FDF78FFF4FF02E
:104C90004700FDF773F900E000BF7B684FEA03436C
:104CA0004FEA134303F1FF33072B13D801A252F845
:104CB00023F000BFDD4C0008E54C0008ED4C000877
:104CC000F54C0008FD4C0008054D00080D4D00088E
:104CD000194D00084FF41663FB6121E04FF4965321
:104CE000FB611DE04FF41653FB6119E04FF496434E
:104CF000FB6115E04FF41643FB6111E04FF4614393
:104D0000FB610DE04FF4E133FB6109E04FF46133E7
:104D1000FB6105E0488601084FF4E123FB6100BF19
:104D2000FB689B69FA68926912691A61FB68996964
:104D3000FB689B69D8687B6803F04053002B02D066
:104D40004FF4805201E04FF000027B6803F04053C3
:104D5000002B02D04FF4806301E04FF000031A43B0
:104D60007B6803F08053002B02D04FF4007301E006
:104D70004FF000031343034343F00C03CB60FB6885
:104D80009969FB689B6958697B68002B02DA4FF4CC
:104D9000807201E04FF000027B6803F08043002B3B
:104DA00002D04FF4007301E04FF0000313430343BC
:104DB0004B61FA6948F2A063C0F201039A4228D914
:104DC000F86912F0A7FB02460B4625A1D1E90001C4
:104DD00012F040FD02460B461046194612F0D2FE74
:104DE00003469BB2BB61FB689A69B9694FF6F073E1
:104DF0000B40B9694FEA510101F007010B43936081
:104E0000FB689B69FA689269D26842F40042DA60F2
:104E100014E046F64073C0F24013FA69B3FBF2F3B4
:104E20009BB27B61FB689B697A699A60FB689B69AE
:104E3000FA689269D26822F40042DA60FB689A69E3
:104E4000FB689B69DB6843F4015343F02003D360A4
:104E5000FB68184607F12007BD4680BDAFF3008010
:104E600000000000F406844180B483B000AF786095
:104E70007B689B695B68DBB2184607F10C07BD468F
:104E800080BC704780B483B000AF78600B46FB7085
:104E90007B689B69FA785A6007F10C07BD4680BCB5
:104EA000704700BF80B582B000AF78607B689B69B7
:104EB0001B6803F04003002B0CBF00230123DBB26F
:104EC000002B0FD07B689B697A689269126822F088
:104ED00040021A607B681B6803F11C031B687A6838
:104EE000104698477B689B691B6803F02003002BE2
:104EF00006D17B689B691B6803F00803002B02D076
:104F00004FF0010301E04FF00003002B07D07B6856
:104F10001B6803F118031B687A681046984707F16D
:104F20000807BD4680BD00BF80B500AF40F6D01376
:104F3000C2F200031B681846FFF7B4FF80BD00BF34
:104F400080B500AF40F6D413C2F200031B681846C8
:104F5000FFF7A8FF80BD00BF80B500AF40F6D813B3
:104F6000C2F200031B681846FFF79CFF80BD00BF1C
:104F700080B500AF40F6DC13C2F200031B68184690
:104F8000FFF790FF80BD00BF80B500AF40F6E01393
:104F9000C2F200031B681846FFF784FF80BD00BF04
:104FA00080B500AF40F6E413C2F200031B68184658
:104FB000FFF778FF80BD00BF80B582B000AF78609A
:104FC0007B6803F101031846FDF784FA7B681846F5
:104FD00007F10807BD4680BD80B483B000AF78609C
:104FE0000B46FB707B68FA781A707B681B7803F1BC
:104FF000207303F148034FEA43131A467B68C3F852
:1050000084207B681B7803F5A02303F101034FEA9A
:1050100003331A467B68C3F8882007F10C07BD46A6
:1050200080BC704780B483B000AF786013460A46F6
:105030007A807B707B88DAB27B6883F883207B6818
:105040001B78002B02D14FF000037B804FF40063EC
:10505000C5F200034FF40062C5F20002D1697A681C
:1050600012784FF0010000FA02F24FEA02424FEAD2
:1050700012420A43DA617B68D3F884301B6803F478
:105080000043002B14BF00230123DBB2002B1AD0F6
:105090007B68D3F884207B68D3F8843019687B88D8
:1050A0004FEA43534FEA535378784FEA804018430E
:1050B0007B681B784FEA835303430B4343F08053D1
:1050C00043F40043136007F10C07BD4680BC7047F2
:1050D00080B485B000AF78604FF45463C0F203032E
:1050E000FB604FF0A0437A6812784FEA421242F018
:1050F00020021A614FF0A0431B6903F02003002B2C
:105100000ED0FB68002B0CBF00230123DBB2FA6832
:1051100002F1FF32FA60002B02D04FF0010301E0F0
:105120004FF00003002BE5D107F11407BD4680BC0A
:10513000704700BF80B483B000AF78607B68D3F85D
:1051400084304FF0FF029A6007F10C07BD4680BC27
:10515000704700BF80B483B000AF78607B68D3F83D
:1051600084301B684FEAD373DBB2002B06D07B6818
:10517000D3F884304FF090421A6005E07B68D3F892
:1051800084304FF000021A607B68D3F884304FF00F
:1051900000021A617B68D3F884304FF0FF029A60F6
:1051A00007F10C07BD4680BC704700BF80B483B0D8
:1051B00000AF78607B68D3F884301B686FEA030324
:1051C0004FEAD373DBB2002B09D07B68D3F884306D
:1051D0007A68D2F88420126822F080421A607B68D4
:1051E000D3F884307A68D2F88420126842F400122E
:1051F0001A6007F10C07BD4680BC704780B483B0CD
:1052000000AF78607B68D3F884307A68D2F8842065
:10521000126822F400121A607B68D3F884307A682E
:10522000D2F88420126842F080521A6007F10C070D
:10523000BD4680BC704700BF80B586B000AFF86047
:10524000B9601346FB80FB8818464FF0800104F0DC
:10525000FDFF0346FB804FF00003FB820BE0FB8A5F
:10526000FA8AB9688A181278F968CB185A70FB8ADA
:1052700003F10103FB82FA8AFB889A422CBF0023C8
:105280000123DBB2002BEAD1FB88DAB2FB6883F89A
:105290008120FB684FF0010283F88220FB881846CA
:1052A00007F11807BD4680BD80B586B000AF7860B5
:1052B0007B6893F881207B6893F883301046194609
:1052C00004F0D8FF03463B823B8A03F1030303F15A
:1052D0000302002BB8BF13464FEAA303FB817B6890
:1052E000D3F884309B694FEA03434FEA1343FA89AA
:1052F000934234BF00230123DBB2002B28D07B680C
:1053000003F101037B617B684FF0000283F8812089
:105310007B684FF0000283F882204FF000037B820D
:105320000DE07B68D3F888307A6912681A607B8A4E
:1053300003F101037B827B6903F104037B617A8AB9
:10534000FB899A422CBF00230123DBB2002BE8D15A
:105350003B8A002B12D14FF40063C5F200034FF4D7
:105360000062C5F20002516B7A6812784FF00100BA
:1053700000FA02F26FEA02020A405A6307F11807C4
:10538000BD4680BD80B584B000AF78600B46FB7031
:105390007B6893F88330FB817B6893F881207B687E
:1053A00093F883301046194604F064FF0346BB812E
:1053B0007B6893F88230002B03D1786800F052F8B4
:1053C0004BE0BB89002B06D1FB78002B45D07868D9
:1053D00000F048F841E0BA89FB89D31803F1FF32A5
:1053E000FB8992FBF3F3FB727B68D3F884307A6815
:1053F000D2F88420126902F060421A617B68D3F807
:1054000084207B68D3F884301969FB7A4FEAC34360
:1054100018464FF00003C1F6F8730340B889034300
:105420000B4313614FF40063C5F200034FF40062B5
:10543000C5F20002516B7A6812784FF0010000FA51
:1054400002F20A435A637B68D3F884307A68D2F850
:105450008420126842F004421A6007F11007BD462A
:1054600080BD00BF80B483B000AF78607B68D3F8A4
:1054700084307A68D2F88420126902F060421A619E
:105480007B68D3F884307A68D2F88420126942F4B9
:1054900000221A617B68D3F884307A68D2F88420BD
:1054A000126842F004421A6007F10C07BD4680BC46
:1054B000704700BF80B485B000AF78604FF40063E0
:1054C000C5F200031A694FF40063C5F20003596B7B
:1054D0007B681B7821FA03F34FEAC313DBB2134353
:1054E000FB607B68D3F884309A68FB6813401846E9
:1054F00007F11407BD4680BC704700BF80B483B07D
:1055000000AF786039607B68D3F884303A689A607D
:1055100007F10C07BD4680BC704700BF80B582B064
:1055200000AF78607B6803F101031846FCF7D2FFF7
:105530007B68184607F10807BD4680BD80B483B07C
:1055400000AF78600B46FB707B68FA781A707B6856
:105550001B7803F1207303F158034FEA43131A46F3
:105560007B68C3F884207B681B7803F5A02303F1D4
:1055700001034FEA03331A467B68C3F8882007F11A
:105580000C07BD4680BC704780B582B000AF786024
:1055900013460A467A807B707B88DAB27B6883F890
:1055A00083207B681B78002B02D14FF000037B80A7
:1055B0004FF40063C5F200034FF40062C5F200022D
:1055C000D1697A6812784FF0010000FA02F24FEACE
:1055D00002420A43DA617B68D3F884301B6803F423
:1055E0000043002B14BF00230123DBB2002B15D096
:1055F0007B68D3F884207B68D3F8843019687B8873
:105600004FEA43534FEA535378784FEA80400343BD
:105610000B4343F0805343F4004313607B681B78D3
:10562000002B02D0786800F047F907F10807BD4663
:1056300080BD00BF80B485B000AF78604FF4546384
:10564000C0F20303FB604FF0A0434FF010021A6159
:105650004FF0A0431B6903F01003002B0ED0FB6832
:10566000002B0CBF00230123DBB2FA6802F1FF32EA
:10567000FA60002B02D04FF0010301E04FF000036D
:10568000002BE5D107F11407BD4680BC704700BF71
:1056900080B483B000AF78607B68D3F884304FF07B
:1056A000FF029A6007F10C07BD4680BC704700BF3F
:1056B00080B483B000AF78607B68D3F884301B6817
:1056C0004FEAD373DBB2002B06D07B68D3F884306B
:1056D0004FF090421A6005E07B68D3F884304FF0B9
:1056E00000021A607B681B78002B08D17B68D3F816
:1056F00084204FF04003C6F2080313610BE07B687F
:10570000D3F884304FF000021A617B68D3F88430FC
:105710004FF0FF029A6007F10C07BD4680BC70474E
:1057200080B483B000AF78607B68D3F884301B68A6
:105730006FEA03034FEAD373DBB2002B09D07B6817
:10574000D3F884307A68D2F88420126822F080423C
:105750001A607B68D3F884307A68D2F884201268A3
:1057600042F400121A607B681B78002B07D17B681B
:10577000D3F884204FF04003C6F20803136107F109
:105780000C07BD4680BC704780B483B000AF786022
:105790007B68D3F884307A68D2F88420126822F4C7
:1057A00000121A607B68D3F884307A68D2F88420BB
:1057B000126842F080521A6007F10C07BD4680BCA7
:1057C000704700BF80B586B000AFF860B96013467F
:1057D000FB80FB6893F88130FA881046194604F084
:1057E00035FD0346FB804FF00003FB820BE0FB8A94
:1057F000BA68D318FA8AF9688A1852781A70FB8A3C
:1058000003F10103FB82FA8AFB889A422CBF002332
:105810000123DBB2002BEAD1FB684FF0000283F8D2
:105820008120FB684FF0000283F88220FB88184635
:1058300007F11807BD4680BD80B485B000AF786021
:105840000B467B807B8803F1030303F10302002BEB
:10585000B8BF13464FEAA3033B817B6803F1010302
:10586000FB607B88DAB27B6883F881207B684FF02D
:10587000010283F882204FF000037B810DE07B68FA
:10588000D3F888301A68FB681A607B8903F101033A
:105890007B81FB6803F10403FB607A893B899A42B0
:1058A0002CBF00230123DBB2002BE8D107F1140742
:1058B000BD4680BC704700BF90B585B000AF786032
:1058C0007B6893F88330FB817B6893F881207B6849
:1058D00093F883301046194604F0CCFC0346BB8194
:1058E000BB89002B03D1786800F040F83AE07B6870
:1058F00093F881301A46FB89D31803F1FF32FB89F4
:1059000092FBF3F3FB727B68D3F884307A68D2F8A9
:105910008420126902F060421A617B68D3F8841017
:105920007B68D3F884301869FB7A4FEAC3431A4680
:105930004FF00003C1F6F8731340FA89FC7A04FBB8
:1059400002F222F07F4222F47802134303430B61F8
:105950007B68D3F884307A68D2F88420126842F0E9
:1059600004421A6007F11407BD4690BD80B483B0AD
:1059700000AF78607B68D3F884307A68D2F88420EE
:10598000126902F060421A617B68D3F884307A6849
:10599000D2F8842011697A6892F883200A4342F48D
:1059A00000221A617B68D3F884307A68D2F88420A8
:1059B000126842F004421A6007F10C07BD4680BC31
:1059C000704700BF80B483B000AF78607B68D3F8C5
:1059D00084309A684FF40063C5F200035B6913409A
:1059E000184607F10C07BD4680BC704780B483B0F1
:1059F00000AF786039607B68D3F884303A689A6089
:105A000007F10C07BD4680BC704700BFB0B584B03D
:105A100000AF786039607B681846396802F0FEF99B
:105A20007B68364A1A607B6803F14C031D464FF0D1
:105A3000030406E02846FFF7BFFA05F18C0504F1E0
:105A4000FF34B4F1FF3F0CBF00230123DBB2002B76
:105A5000F0D17B6803F51F731D464FF0030406E089
:105A60002846FFF75BFD05F18C0504F1FF34B4F126
:105A7000FF3F0CBF00230123DBB2002BF0D140F627
:105A8000E813C2F200037A681A604FF00003FB814A
:105A900025E0FB894FF08C0202FB03F303F148037E
:105AA0007A68D31803F10402FB89DBB21046194669
:105AB000FFF792FAFB894FF08C0202FB03F303F528
:105AC0001E737A68D31803F10402FB89DBB2104617
:105AD0001946FFF733FDFB8903F10103FB81FB89C5
